:020000040800F2
:10000000C834002069020008732600085124000843
:1000100071260008C3040008B94A00080000000067
:10002000000000000000000000000000F1270008B0
:10003000BD05000800000000EF270008FD270008AC
:10004000830200088302000883020008830200087C
:10005000830200088302000883020008830200086C
:10006000830200088302000883020008830200085C
:10007000830200088302000883020008830200084C
:100080000D050008830200088302000883020008AF
:10009000830200088302000883020008830200082C
:1000A000830200088302000883020008830200081C
:1000B000830200088302000883020008830200080C
:1000C00083020008830200088302000883020008FC
:1000D0008302000883020008492F000883020008F9
:1000E00083020008830200088302000883020008DC
:1000F00083020008830200088302000883020008CC
:1001000083020008830200088302000883020008BB
:1001100083020008830200088302000883020008AB
:10012000830200088302000883020008830200089B
:10013000830200088302000883020008830200088B
:100140008302000883020008830200087526000865
:10015000830200088302000883020008830200086B
:10016000830200088302000883020008830200085B
:1001700083020008830200088302000800000000D8
:10018000830200088302000800F002F800F05CF827
:100190000AA090E8000C82448344AAF10107DA45E2
:1001A00001D100F051F8AFF2090EBAE80F0013F0D8
:1001B000010F18BFFB1A43F001031847244C00003D
:1001C000444C00000A444FF0000C10F8013B13F0BF
:1001D000070408BF10F8014B1D1108BF10F8015BA0
:1001E000641E05D010F8016B641E01F8016BF9D193
:1001F00013F0080F1EBF10F8014BAD1C0C1B09D1EA
:100200006D1E58BF01F801CBFAD505E014F8016B5B
:1002100001F8016B6D1EF9D59142D6D370470000ED
:100220000023002400250026103A28BF78C1FBD8FF
:10023000520728BF30C148BF0B6070471FB504F09C
:10024000B9FD1FBD10B510BD00F001F91146FFF753
:10025000F5FF04F0B7FC00F01FF903B4FFF7F2FF5D
:1002600003BC00F027F9000009488047094800470F
:10027000FEE7FEE7FEE7FEE7FEE7FEE7FEE7FEE756
:10028000FEE7FEE704480549054A064B70470000B3
:100290009928000889010008C82E0020C8340020D1
:1002A000C8300020C830002053EA020C00F06980FA
:1002B0002DE9F04B4FF00006002B1FBFB3FA83F57A
:1002C00003FA05F424FA05F65E4012BF1643B2FAAB
:1002D00082F502FA05F4C5F120051EBF22FA05FCDD
:1002E00044EA0C04203556EA044C4FEA144418BF83
:1002F000641C4FF000084FF00009904271EB030CB2
:1003000039D3002919BFB1FA81F701FA07F6B0FA1B
:1003100080F700FA07F6C7F120071EBF20FA07FC96
:1003200046EA0C062037B6FBF4FCA7EB0507103FA6
:1003300007F01F0BCBF120060CFA0BFB2CFA06F68C
:1003400044BFB3460026202FA4BF5E464FF0000BEB
:100350005BEA060C08BF4FF0010B19EB0B09ABFB76
:10036000027C48EB0608C01B06FB02CC0BFB03CC4F
:1003700071EB0C01C1E70B46024641464846BDE819
:10038000F08B13B54FF000004FF00001AFF3008089
:10039000BDE81C40704710B5203AC0F00B80B1E8B2
:1003A0001850203AA0E81850B1E81850A0E81850AA
:1003B000BFF4F5AF5FEA027C24BFB1E81850A0E8B3
:1003C000185044BF18C918C0BDE810405FEA827CCD
:1003D00024BF51F8043B40F8043B08BF7047D207E4
:1003E00028BF31F8023B48BF11F8012B28BF20F885
:1003F000023B48BF00F8012B70474FF0000200B5E8
:10040000134694469646203922BFA0E80C50A0E837
:100410000C50B1F12001BFF4F7AF090728BFA0E8E5
:100420000C5048BF0CC05DF804EB890028BF40F8B1
:10043000042B08BF704748BF20F8022B11F0804FF3
:1004400018BF00F8012B704770477047704775461A
:1004500000F02CF8AE4605006946534620F0070030
:10046000854618B020B5FFF70DFFBDE820404FF0DE
:1004700000064FF000074FF000084FF0000B21F08E
:100480000701AC46ACE8C009ACE8C009ACE8C0095B
:10049000ACE8C0098D46704710B50446AFF3008044
:1004A0002046BDE81040FFF7D8BE00000048704766
:1004B000642E002001491820ABBEFEE72600020092
:1004C0007047FEE7002070470020704710B50022FB
:1004D0000449054802F01EFF0449034802F00DFFDD
:1004E000002010BD381F00205C12002038170020AB
:1004F00010B50146034802F000FF024802F0D6FEA4
:10050000002010BD5C12002000207047014800F060
:10051000B3B80000FC11002001681823CAB2103AD9
:10052000B2FBF3F2054B6FF30901032A9B5CC36531
:1005300000D9091D8165084670470000BE4D0008BE
:1005400010B5014600208B698A6A4FF0C07453B120
:10055000B3F5005F15D072B1012A0CD0022A0AD07F
:10056000032A09D104E01AB1012A06D0022A03D1D4
:10057000C96AC90100D5012010BDC96AA142FAD0DB
:1005800010BD002AF7D0012AF2D0022AF3D0032AA4
:10059000F3D010BD30B50468256825F480252560AA
:1005A000046863608368402B036803D09960006827
:1005B000C26030BD9A600068C16030BD704772B6DD
:1005C000FEE72DE9F0410446876D00F0D7FA0646B4
:1005D00094F835000025022806D08020606584F854
:1005E00034500120BDE8F0812068016821F0160137
:1005F00001602068416921F080014161206C08B9E7
:10060000A06C20B12068016821F008010160206819
:10061000016821F0010101600CE000F0AFFA801BDD
:10062000052807D920206065032084F8350084F868
:100630003450D7E720680068C007EED194F85C100A
:100640003F208840B860012084F8350084F8345099
:100650000020C7E790F83510022903D080214165BA
:1006600001207047052180F835100068016821F0ED
:1006700001010160002070472DE9F84304464FF066
:100680000009CDF8009063484FF41651A56D00683D
:10069000B0FBF1F72E6894F85C10082000FA01F125
:1006A00031420FD021680A6852070BD50A6822F040
:1006B00004020A6094F85C108840A860606D40F005
:1006C0000100606594F85C104FF0010808FA01F031
:1006D000304208D021684969090604D5A860606DD8
:1006E00040F00200606594F85C10042088403042BD
:1006F00008D021680968890704D5A860606D40F0BA
:100700000400606594F85C1010208840304218D0D6
:1007100021680968090714D5A860206801684903A1
:1007200004D50068000308D5A16C07E00168C9057D
:1007300003D4016821F008010160216C09B1204651
:10074000884794F85C1020208840304231D02168DE
:100750000968C9062DD5A86094F8350005282068D9
:10076000016806D0490347D5006800031DD4616CB9
:100770001CE021F0160101602068416921F0800130
:100780004161206C08B9A06C20B12068016821F09B
:100790000801016094F85C103F208840A86084F84C
:1007A000358084F83490216D1FE0E16B09B120465B
:1007B0008847606D00282BD0606DC00714D00520DD
:1007C00084F835002068016821F00101016000987B
:1007D000401C0090B84203D820680068C007F6D1DA
:1007E00084F8358084F83490E16C002910D001B091
:1007F0002046BDE8F04308470168C905D5D4016823
:1008000021F01001016084F8358084F83490CCE741
:10081000BDE8F883980000202DE9F041044600F07F
:10082000ADF906465CB1022084F83500002584F855
:1008300034502068016821F0010101600DE00120C1
:10084000BDE8F08100F09AF9801B052805D9202029
:100850006065032084F83500F2E720680068C0076F
:10086000F0D12268116820480140D4E901031843FF
:10087000D4E903363343184363691843A369184323
:10088000E3691843236A18430843616A042903D1C2
:10089000D4E90B1319430843106020684069666A65
:1008A00020F0070130460E43012704280CD1A06A2E
:1008B0000643E06A40B12046FFF742FE20B14020E7
:1008C000606584F83570BAE7206846612046FFF716
:1008D00023FE94F85C203F2191408160656584F897
:1008E00035700020ACE700003F8010F02DE9F041AA
:1008F0000446866D90F83400002501280DD00120B3
:1009000084F8340094F835700020012F07D084F863
:10091000340002252846BDE8F0810220FBE70227CB
:1009200084F8357060652046FFF734FE94F85C105B
:100930003F208840B0602068016841F016010160E6
:10094000206C20B12068016841F008010160206836
:10095000016841F001010160DCE7000070B5044668
:1009600000F00CF90546601C02D0044800780444ED
:1009700000F004F9401BA042FAD370BD8C000020A7
:100980002DE9F84FDFF8BCA10022012503264FF026
:100990000F090AF1040BAAF1040E00BF0B6805FA57
:1009A00002F42340A34270D10F7907F00307012F0F
:1009B00001D0022F16D187684FEA420806FA08FCD8
:1009C00027EA0C07D1F80CC00CFA08FC4CEA070C1B
:1009D000C0F808C04768A7430C79C4F300149440DA
:1009E0003C4344600C79E443A4070AD0C4684FEA4E
:1009F000420C06FA0CF7BC438F6807FA0CF7274342
:100A0000C7600C7904F00304022C12D1D40800EB67
:100A1000840CDCF820405707FF0E09FA07F824EA97
:100A20000804D1F8108008FA07F848EA0408CCF85E
:100A3000208004684FEA420C06FA0CF7BC430F7999
:100A400007F0030707FA0CF7274307604C6814F414
:100A5000403F70D03C4C276847F4804727602468AB
:100A600022F0030704F480440094384C07EB040C94
:100A7000DCF8084897074FEA177809FA08F7BC43EB
:100A8000334FB84202D1002724E054E0314FB8423E
:100A900001D101271EE0304FB84201D1022719E0F1
:100AA0002E4FB84201D1032714E02D4FB84201D197
:100AB00004270FE02B4FB84201D105270AE02A4F47
:100AC000B84201D1062705E0284FB84201D10727D7
:100AD00000E0082707FA08F72743CCF80878DAF887
:100AE00000405746D1F804C09C435FEACC2C00D5A7
:100AF0001C433C60DBF800405F46D1F804C09C43D7
:100B00005FEA8C2C00D51C433C60DEF80040774641
:100B1000D1F804C09C435FEA8C3C00D51C433C6088
:100B2000084F083F3C68D1F804C09C435FEACC3CC6
:100B300000D51C433C60521C102AFFF42FAFBDE8C7
:100B4000F88F0000083C014044380240003001406A
:100B5000000002400004024000080240000C024075
:100B6000001002400014024000180240001C024025
:100B70000AB1816170470904FBE700000148806801
:100B8000704700008C000020024881680278114400
:100B9000816070478C0000200B4810B5016841F45B
:100BA00000710160016841F480610160016841F4F5
:100BB00080710160032000F071F8002000F006F859
:100BC00000F024F8002010BD003C024070B50D4D2F
:100BD00004464FF47A712878B1FBF0F00A490968AD
:100BE000B1FBF0F001F04CF848B9102C07D200220C
:100BF0002146501E00F032F800206C6070BD0120CC
:100C000070BD00008C000020980000200B4882B0CE
:100C1000016841F480410160006800F48040009068
:100C20000648001F016841F080510160006800F033
:100C300080500090072002B000F030B844380240E5
:100C4000002809DB00F01F020121914040098000CB
:100C500000F1E020C0F8001170470000F0B40E4B26
:100C60001B680C46C3F30223C3F10705042D00D90A
:100C70000425191D072901D2002300E0DB1E0126EF
:100C800006FA05F1491E214099409E40761E164005
:100C90003143F0BC03F011BF0CED00E0064900F059
:100CA000070208684FF6FF03184040EA0220034A93
:100CB00010430860704700000CED00E00000FA05EA
:100CC00070470068416200207047F0B50368586AB9
:100CD00039B19C6A4FF4827600EB144400204D1E1B
:100CE0000AE040EA024098620FE006EB8007DF5915
:100CF000401C04EB1744C0B2A842F6D344EA0240B9
:100D00004FF4807202EB810158500020F0BDD0F802
:100D1000080502F0D3BD01EBC10200EB8202D0F85E
:100D20000805D26C02F028BD01EBC10200EB820283
:100D3000D0F80805D2F88C2202F079BDD0F8080569
:100D400002F0BEBD0A0601F00F0101EBC10100EB8C
:100D5000810101D53C3101E001F51F71006803F00C
:100D6000F3BC70B504460B0601F00F0000EBC001A8
:100D700004EB81014FF001024FF0000503D581F82B
:100D80003D203C3103E081F87D5201F51F71087070
:100D900094F8BC04012808D084F8BC24206803F02F
:100DA0008DF984F8BC54002070BD022070BD70B570
:100DB000044601F00F006268904201D9012070BD25
:100DC0000B0601F00F0101EBC10104EB81014FF0B3
:100DD00001024FF0000503D581F83D203C3103E0CE
:100DE00081F87D5201F51F718D70087094F8BC0474
:100DF000012808D084F8BC24206803F05BFB84F849
:100E0000BC54002070BD022070BD01F00F0101EB49
:100E1000C10100EB8100D0F89C0270472DE9F04140
:100E200004460F0601F00F0000EBC00104EB810146
:100E30004FF001064FF0000503D581F83D603C31CD
:100E400003E081F87D5201F51F710870CA600B71D3
:100E50004A7802B10881022B00D14D7194F8BC048C
:100E6000012809D084F8BC64206803F07FF8284684
:100E700084F8BC54BDE8F0810220FBE770B50C4655
:100E800001F00F0505EBC50100EB8101C1F89432BB
:100E9000C1F88C220023C1F89C3281F87D3281F8A0
:100EA0007C52036901F51F71012B00D14A612207B1
:100EB000027C006803D003F055FB002070BD03F0F6
:100EC0003FFAFAE770B504460D4601F00F0061687D
:100ED000884201D9012070BD29064FF000064FF06D
:100EE000010207D500EBC00104EB810181F83D2030
:100EF0003C3107E005EBC50104EB810181F87D621F
:100F000001F51F718A70087094F8BC04012807D09D
:100F100084F8BC24206803F0F9FA280702D007E01F
:100F2000022070BD217C04F2C442206803F096FACE
:100F300084F8BC64002070BD70B50C4601F00F054C
:100F400005EBC50100EB81014B65CA640023CB654D
:100F5000012381F83D3001F83C5F0369012B00D18A
:100F60004A612207027C006803D003F0FBFA0020EC
:100F700070BD03F0E5F9FAE72DE9FC5F056804466A
:100F8000284603F082FC00287DD1206803F0A9FCEC
:100F9000002878D0D5F80808C0F30D20C4F8FC0468
:100FA000206803F09EFC800704D52068416901F0A9
:100FB00002014161206803F094FCC10604F2C440C0
:100FC000009034D52068816921F0100181612F6A79
:100FD00007F00F0000EBC00004EB8006C7F34340AE
:100FE00006F51F76022802D0062811D01AE047F62F
:100FF000F070074216D0C7F30A1217462846316927
:1010000003F073FC306938443061306A384408E0DA
:1010100008222846009903F068FC306AC7F30A11D9
:10102000084430622068816941F0100181612068C4
:1010300003F057FC00034FF0080B4FF0000A4FF08D
:1010400001097CD50026206803F02AFC074674E0DD
:10105000F80770D0F1B2206803F03BFC8046C0076F
:1010600007D005EB4611C1F8089B3146204601F038
:1010700007FB5FEA087024D505EB4611C1F808BBF1
:101080002068016C00E025E200EB46100191D0F8E9
:10109000082BFC4B994205D9110403D54FF40041AC
:1010A000C0F8081B204600F005FBF649019888426D
:1010B00007D92069012804D120680121009A03F092
:1010C000CDF95FEAC86004D505EB46111020C1F8E0
:1010D000080B5FEA88701DD56869000605D5D5F84C
:1010E000040840F48061C5F8041806EBC60004EB60
:1010F000800090F87F1200F51F70012905D180F85B
:1011000003A0F1B2204600F0EBF905EB46110220F6
:10111000C1F8080B5FEA886004D505EB4610202172
:10112000C0F8081B5FEA884005D505EB46104FF470
:101130000051C0F8081B7F08761C002F88D120685A
:1011400003F0CFFB40036FD5206803F0A2FB0746F6
:10115000002667E0F80763D0F1B2206803F0A7FB30
:101160008046C00723D006F00F0209FA02F0D5F836
:1011700034288243C5F8342805EB4610C0F8089996
:10118000206901280FD106EBC60004EB8000D0E9EE
:1011900012211144C16436B9606D20B92068012163
:1011A000009A03F05BF9F1B22046FFF7B4FD5FEA65
:1011B000087003D505EB4611C1F808B95FEAC860AD
:1011C00004D505EB46111020C1F808095FEA486014
:1011D00004D505EB46104021C0F808195FEA887075
:1011E00017D53146284603F023FB06EBC60004EB77
:1011F000800090F83F103C30012905D180F803A011
:10120000F1B2204600F068F905EB46110220C1F862
:1012100008095FEA086003D53146204601F096FAD6
:101220007F08761C002F95D1206803F05AFB002818
:1012300011DAD5F8040820F00101C5F8041894F873
:10124000F40401282BD0204600F018FA20684169E8
:1012500001F000414161206803F043FB00050BD51C
:10126000D5F80808C00702D0204600F04BFA2068E5
:10127000416901F400614161206803F032FBC00460
:1012800066D5D5F8040820F00100C5F8040810213F
:10129000206803F0CDFA00214FF67F321FE084F87A
:1012A000F4A400212046FFF70BFDCFE705EB41102A
:1012B000C0F80829D0F8003923F40013C0F8003929
:1012C000C0F8082BD0F8003B23F40013C0F8003B13
:1012D000D0F8003B43F00063C0F8003B491C606855
:1012E0008842E3D8D5F81C0840F00111C5F81C1855
:1012F000206B002828460DD0D0F8840840F00B0160
:10130000C5F88418D5F8440840F00B012846C5F804
:1013100044180DE0D0F8140842F22B010843C5F838
:101320001408D5F8100840F00B012846C5F810182D
:10133000D0F8000820F4FE61C5F80018217C206870
:10134000009A03F08BF82068416901F480514161F3
:10135000206803F0C6FA800415D5206802F046FE26
:10136000206803F085FAE06000F07EFA0146227BF7
:10137000206803F019FB204600F06AF920684169F3
:1013800001F400514161206803F0ABFA000707D572
:10139000204600F077F92068416901F008014161B9
:1013A000206803F09EFA000616D5A86920F0800098
:1013B000A86101260DE000BF06EBC60004EB80002B
:1013C00090F87F02012803D1F1B22046FFF7BAFC62
:1013D000761C6068B042EFD8206803F082FAC00241
:1013E00021D501264F4616E005EB4610D0F800192E
:1013F00006EBC60004EB800090F84020012A09D1DA
:10140000002907DA80F83F70F0B240F080012046F2
:10141000FFF798FC761C6068B042E5D82068416907
:1014200001F480114161206803F05BFA800234D539
:1014300001204B4629E000BF05EB4011D1F8001B0D
:1014400000EBC00204EB820696F88022012A1BD131
:10145000002919DA94F8FC2401F4803102F0010229
:10146000914211D186F87F32A96941F08002AA61C8
:101470006969090608D4D5F8040840F40070C5F875
:10148000040805E00A30544F401C61688142D3D8FB
:101490002068416901F400114161206803F021FADC
:1014A000400007D52046FFF732FC2068416901F073
:1014B00080414161206803F014FA40070AD5206892
:1014C0004568680702D52046FFF738FC2068416868
:1014D00029434160BDE8FC9FD0F8080502F044BAFA
:1014E000D0F8080502F054BA2DE9F0418AB00400A2
:1014F00005D094F8BD042668002520B108E001203D
:101500000AB0BDE8F08184F8BC54204600F05EF8D3
:10151000032084F8BD04F06BC00500D42561206869
:1015200002F008FF04F11001282288466846FEF701
:1015300032FF94E80F0002F067FD0226C8BB0021CD
:10154000206803F0F1F9002001270EE000EBC00154
:1015500004EB810181F83D7001F83C0F08810D71A9
:10156000CD600D61401CC0B28D6161688142EDD8D3
:10157000002011E000EBC00104EB810181F87D52F5
:1015800081F87C0281F88052C1F88852C1F88C52EF
:10159000401CC0B2C1F8945261688142EAD8282246
:1015A00041466846FEF7F7FE94E80F0002F008FE99
:1015B00010B184F8BD64A2E784F8385084F8BD7493
:1015C000206802F0EFFD00209AE7000010B586B019
:1015D000044614216846FEF710FF2068B0F1A04FC2
:1015E0002FD119480021026842F001020260006810
:1015F00000F0010005904FF4C05000900220CDE9AA
:101600000101032003900A20049069460F48FFF768
:10161000B7F90D48001D016841F0800101600A48DA
:101620001430016841F4804101600068002200F438
:101630008040059011464320FFF710FB4320FFF741
:10164000FFFA06B010BD0000303802400000024032
:1016500070B50446C068012570B1022801D0FEF7BC
:10166000AEFF2946D4F8080502F000FAD4F80805C0
:10167000BDE8704002F0B5B90025F2E7D0F80805E2
:1016800002F0DDB9D0F8080502F0E3B910B5044660
:1016900090F8BC0401280BD0012084F8BC0484F825
:1016A0003810206803F06EF9002084F8BC0410BDE7
:1016B000022010BDD0F8082500F2C441104602F007
:1016C000E1B910B50446006894F8BC14012906D0AD
:1016D000012184F8BC14A16A012902D008E002208B
:1016E00010BDA169012903D0816B41F48031816370
:1016F000206803F078F8206802F046FD002084F8A6
:10170000BC0410BD10B50446D0F8080502F0FCF981
:101710002068D0F8001E41F00101C0F8001E206AC8
:10172000002804D00248016841F00601016010BDA4
:1017300010ED00E02DE9F0470E46050065D0DFF81A
:101740001481D8F80000F7B200F00700B04207D2C9
:1017500088F80070D8F8000000F00700B04254D1BB
:1017600028683D4C810712D5400703D5206840F416
:10177000E05020602878000703D5206840F46040DE
:1017800020602068A96820F0F000084320602878D5
:10179000C0072DD0304968680839012812D00228C6
:1017A00013D0032811D00968890700292DDA216890
:1017B00021F0030101432160FFF7E0F9814641F286
:1017C000883A0EE009688903EFE709688901ECE7C8
:1017D000FFF7D4F9A0EB0901514502D90320BDE878
:1017E000F0872068696800F00C00B0EB810FEFD142
:1017F000D8F80010404601F00701B14207D9077040
:10180000006800F00700B04201D00120E7E7287827
:10181000400705D52068E96820F4E05008432060BF
:101820002878000706D52068296920F4604040EA3E
:10183000C100206000F03EF82168084AC1F303119E
:10184000515CC8400649086006480068FFF7BEF9C9
:101850000020C4E7003C024008380240C64D0008A2
:1018600098000020900000200148006870470000A8
:10187000980000200448054900680968044AC1F33B
:101880008221515CC840704798000020083802400F
:10189000D64D00080448054900680968044AC1F3A8
:1018A0004231515CC840704798000020083802401F
:1018B000D64D0008154810B5006810F00C02144809
:1018C00013D04110042A0FD0082A0ED10F4C241F28
:1018D0002268236802F03F025B0207D52068C0F34C
:1018E0008810A0FB010106E0084610BD2168C1F385
:1018F0008811A1FB00010023FEF7D6FC2168C1F38B
:101900000141491C4900B0FBF1F010BD083802400C
:101910000024F4002DE9F84F04006ED02078DFF8A1
:101920004C93C007A9F104054AD009F104000168ED
:10193000C1F38101012908D00068C0F381000228A9
:101940000AD1D9F80000400206D52868800337D5AF
:1019500060680028E1D033E06068B0F5803F10D0C7
:10196000B0F5A02F286810D020F4803028602868B7
:1019700020F4802028606068A8B1FFF7FFF80646D1
:101980000DE0286840F48030F4E740F480202860BF
:10199000F7E700BFFFF7F2F8801B642873D82868C8
:1019A0008003F7D50CE0FFF7E9F8064605E000BF35
:1019B000FFF7E4F8801B6428F0D828688003F7D488
:1019C0002078DFF8AC8280074FF0000A3ED5A748A8
:1019D000001D016811F00C0F08D00068C0F38100F1
:1019E00002280BD1D9F80000400207D428688007EC
:1019F00016D5E068012800D112E033E1E068B8B103
:101A00000120C8F80000FFF7B9F8064605E000BF5E
:101A1000FFF7B4F8801B0228C0D828688007F7D5E4
:101A20002868216920F0F80040EAC10028600DE034
:101A3000C8F800A0FFF7A2F8064604E0FFF79EF8FA
:101A4000801B02281FD828688007F7D42078000759
:101A500022D5864F87486169703771B101210160D5
:101A6000FFF78CF8064604E0FFF788F8801B022891
:101A700009D838688007F7D50EE0C0F800A0FFF756
:101A80007DF8064605E082E0FFF778F8801B022823
:101A90007DD838688007F7D42078400768D5DFF80C
:101AA000CCB100270BF13C0BDBF80000C0000BD4DD
:101AB000DBF8001041F08051CBF80010DBF800009B
:101AC000012700F0805000906B4E3068C00510D4A4
:101AD000306840F480703060FFF750F8009005E007
:101AE000FFF74CF80099401A022850D83068C0051A
:101AF000F6D55E4EA0686C3601280FD005283068F8
:101B000010D020F001003060306820F00400306018
:101B1000A068B8B1FFF732F800900FE0306840F0ED
:101B20000100F4E740F004003060F7E7FFF726F823
:101B30000099411A41F28830814266D830688007A6
:101B4000F4D50EE0FFF71AF8009007E0FFF716F85B
:101B50000099411A41F28830814256D83068800796
:101B6000F4D42FB1DBF8001021F08051CBF8001035
:101B7000A069C8B33D49091D0968C1F38101022963
:101B80004AD00228504607D0C8F8600000E03CE088
:101B9000FEF7F4FF04463BE04746C8F86000FEF756
:101BA000EDFF064605E000BFFEF7E8FF801B0228B8
:101BB0002BD828688001F7D4D4E907010843A16A2B
:101BC0002E4A490802EB0141626A41EA8211084348
:101BD00094F82C1040EA0161C9F800100120386621
:101BE000FEF7CCFF044606E03EE000BFFEF7C6FF6E
:101BF000001B022809D828688001F7D534E000BF0F
:101C0000FEF7BCFF001B022802D90320BDE8F88FB5
:101C100028688001F4D427E00128F7D0D9F8000023
:101C2000E26900F4800191421CD1226A00F03F0178
:101C3000914217D147F6C071626A0140B1EB821F31
:101C400010D1A26A4FF0FF3300F4403103EB52028F
:101C5000B1EB024F06D194F82C1000F07060B0EB9D
:101C6000016F01D00120D1E70020CFE70438024006
:101C700000004742800E4742007000400000FFFF16
:101C800010B5401EB0F1807F01D3012010BD4FF090
:101C9000E02460610F21601702F00FFF0020A061B7
:101CA00007202061002010BD70B590F83C20012A6B
:101CB00032D0012480F83C40022280F83D200368A5
:101CC0005A689D6822F070060A6832435A60134BC6
:101CD00002689A4214D0B2F1804F11D0104B9A4250
:101CE0000ED0104B9A420BD00F4B9A4208D00F4B9C
:101CF0009A4205D00E4B9A4202D00E4B9A4204D122
:101D0000496825F080031943916080F83D40002127
:101D100080F83C10084670BD022070BD00000140F4
:101D20000004004000080040000C00400004014096
:101D3000004001400018004010B586B00446142150
:101D40006846FEF75AFB0D492068884214D10C48BA
:101D50000021026842F001020260006800F0010008
:101D60000590402000900220CDE90101CDE903104B
:101D700069460448FEF704FE06B010BD00040040AA
:101D8000303802400000024070B5044690F83C0034
:101D900000260D4601280FD0012084F83C006AB1CE
:101DA000042A1DD0082A2FD00C2A3FD0012600205B
:101DB00084F83C00304670BD022070BD206800F001
:101DC000E5FD2068816941F0080181612068816931
:101DD00021F004018161206881692A69114311E0C1
:101DE000206800F003FE2068816941F40061816190
:101DF0002068816921F480618161206881692A6994
:101E000041EA02218161D2E7206800F025FE2068C6
:101E1000C16941F00801C1612068C16921F0040174
:101E2000C1612068C1692A69114311E0206800F08E
:101E300047FE2068C16941F40061C1612068C16941
:101E400021F48061C1612068C1692A6941EA0221E7
:101E5000C161ACE710B5040003D094F83D0010B1A7
:101E600007E0012010BD002084F83C00204600F06F
:101E70001FF8022084F83D00211D206800F014FDA9
:101E8000012084F8460084F83E0084F83F0084F87E
:101E9000400084F8410084F8420084F8430084F84C
:101EA000440084F8450084F83D00002010BD000087
:101EB00008B500680649884208D10648016841F023
:101EC00002010160006800F00200009008BD0000FF
:101ED000000400404038024010B50446022249B1D7
:101EE00004290ED0082913D094F84100012816D0F7
:101EF000012010BD94F83E000128F9D184F83E205D
:101F00000FE094F83F000128F2D184F83F2008E068
:101F100094F840000128EBD184F8402001E084F8D7
:101F200041200122206800F023FD16492068164A4E
:101F3000884201D0904203D1436C43F40043436490
:101F40002068884213D0B0F1804F10D00F498842EA
:101F50000DD00F4988420AD00E49884207D09042DE
:101F600005D00D49884202D00C49884204D18168CD
:101F700001F00701062903D0016841F00101016069
:101F8000002010BD0000014000040140000400409A
:101F900000080040000C00400040014000180040D4
:101FA00070477047F8B5016804460868CA684B690D
:101FB00010F00F0F4FF0000559D003F0010602F4A6
:101FC0009077374365D0C10705D0D10503D5216C83
:101FD00041F001012164410705D5D90703D0216CE7
:101FE00041F002012164810705D5D90703D0216C96
:101FF00041F004012164010707D502F020013143BB
:1020000003D0216C41F008012164216C00293AD0F1
:10201000800604D5900602D5204600F029FE2068EF
:102020004069216CC0F38010090700D460B32046DA
:1020300000F0E9FD20684069400621D52068143091
:1020400050E8001F21F0400140E80012002AF5D1BD
:10205000A06BA8B16C490165A06BFEF7FBFA0028E4
:1020600011D0A06B016D01B0BDE8F04008478306B8
:102070000FD593060DD52046BDE8F84000F0F8BD19
:102080002046FFF78EFFF8BD2046FFF78AFF256444
:10209000F8BD266B2023012E79D1C60677D5D6064A
:1020A00075D50868486800904869400640D5A16B1E
:1020B000086840680004000CEAD0A28D8242E7D98B
:1020C000E085C869B0F5807F2DD020680C3050E8DD
:1020D000001F21F4807140E80012002AF5D1206829
:1020E000143050E8001F21F0010140E80012002ADE
:1020F000F5D12068143050E8001F21F0400140E87D
:102100000012002AF5D184F83E30256320680C3097
:1021100050E8001F21F0100140E80012002AF5D11C
:10212000A06BFEF74EFAA08DE18D401A81B229E036
:10213000A08DE18D401A81B2E08D0028A8D0002941
:10214000A6D020680C3050E8002F22F4907240E8AE
:102150000026002EF5D12068143050E8002F22F020
:10216000010240E80026002EF5D184F83E302563B8
:1021700020680C3050E8002F22F0100240E80023C5
:10218000002BF5D12046FFF70BFFF8BDFFE7050652
:102190002BD5150629D594F83D002128F5D1A06846
:1021A000B0F5805F01D12069B0B1206A411C216285
:1021B000216800784860E08C401E0004000CE08438
:1021C000E3D12068C16821F08001C1602068C16846
:1021D00041F04001C160D8E7206A0088C0F30800E0
:1021E0004860206A801C2062E5E74006CDD5500695
:1021F000CBD5CA68204622F04002CA6084F83D3040
:1022000000F025F9C1E70000112B000870B50400AB
:1022100004D094F83D00002510B106E0012070BD07
:1022200084F83C50204600F023F8242084F83D0038
:102230002068C16821F40051C160204600F078FD9B
:102240002068016921F4904101612068416921F011
:102250002A0141612068C16841F40051C1602564D0
:10226000202084F83D0084F83E00002070BD00006E
:10227000F0B587B0064614216846FEF7BEF8DFF8D1
:10228000D4C0306800253449022203230727334C89
:1022900060451CD130481430066846F010060660D0
:1022A000006800F010000590086840F00100086028
:1022B0000868694600F00100059058028DE8250085
:1022C000CDE903372046FEF75BFB07B0F0BDDFF832
:1022D00090C06045F9D120481030D0F800C04CF4CF
:1022E000003CC0F800C0006800F4003005900868A9
:1022F00040F0010008600868694600F001000590A0
:102300000C208DE82500CDE903372046FEF738FB89
:10231000154C144820604FF00060C4E901054014DA
:10232000C4E9035080106561C4E906502562204667
:102330006562FEF771FA08B1FEF741F9B463002255
:1023400011462620A663FEF789FC2620FEF778FCBE
:10235000BBE700000010014030380240000002409E
:102360000044004088600240FC11002090F83E309C
:10237000202B0ED159B152B190F83C30012B08D02E
:10238000012380F83C300023036300F057BD012097
:102390007047022070477047704700002DE9F843EE
:1023A000044690F83D001F4616460D4620284CD1A5
:1023B000C5B1BEB194F83C00012846D0012084F894
:1023C0003C004FF00008C4F84080212084F83D0014
:1023D000FEF7D4FBA6848146E684A068B0F5805F52
:1023E00003D004E00120BDE8F883206928B12E461F
:1023F0005FF0000584F83C800EE00026FAE78021BB
:10240000204600F065FDA0B9AEB116F8010B2168B9
:102410004860E08C401EE084E08C4B464FF00002A8
:1024200000970028EBD14FF04001204600F050FD0E
:1024300030B10320D7E735F8020BC0F30800E6E718
:10244000202084F83D000020CDE70220CBE7704734
:10245000FEE70000F0B500230A24302537261F468A
:1024600011E000BFB4EB107F02D905EB107C01E056
:1024700006EB107C01F813C001EB430C00015B1C60
:102480008CF80170DBB29342ECD3F0BD2DE9F0473C
:1024900086B014216846FDF7B0FF3E48002401686D
:1024A00041F004010160016801F004010591016837
:1024B00041F080010160016801F08001059101682F
:1024C00041F001010160016801F00101059101681D
:1024D00041F002010160016801F00201059101680B
:1024E00041F0080101600068DFF8AC8000F00800EE
:1024F0004FF2FE060590002231464046FEF738FBBB
:10250000DFF898904FF48077002239464846FEF76E
:102510002FFBDFF88CA00022F8215046FEF728FBA5
:10252000082000900220CDE901040520CDE90340F8
:1025300069461C48FEF724FA01254FF490100095D7
:10254000CDE9010469464846FEF71AFA0420CDE9B0
:102550000004694650460294FEF712FA0096CDE94F
:102560000154694640460394FEF70AFA0097CDE904
:102570000154694648460394FEF702FAF820009099
:10258000CDE90154694650460394FEF7F9F906B0C7
:10259000BDE8F08730380240000C024000000240E5
:1025A000000402400008024010B58AB000240794DD
:1025B0001C2168460894FDF720FF17481549016063
:1025C0001421C0E901144FF4FA51C0E90314802129
:1025D0008161FFF73FFC08B172B6FEE7079407A9D7
:1025E0000D480894FFF760FB08B172B6FEE7602063
:1025F000CDE9000402940022694607480494FFF7DD
:10260000C3FB08B172B6FEE70348FFF795FB0AB0BB
:1026100010BD0000000400402C11002010B5002265
:102620000F49104801F083F808B1FDF7C8FF0E49C3
:102630000C4801F091FA08B1FDF7C1FF0B490948B8
:1026400000F050FE08B1FDF7BAFF064801F008FBA4
:10265000002803D0BDE81040FDF7B1BF10BD000059
:10266000280000205C120020F400002078000020E8
:10267000FEE7FEE70148FEF77FBC00005829002076
:102680002DE9F04103680D4604461E6C03EB45112D
:10269000D1F8080BD4F810E04FF400474FF0200CAD
:1026A00004F2C442BEF1010F09D0DFF898E076458C
:1026B00039D1020432D500BFC1F8087B3FE0224B7C
:1026C0005FEA007E04D59E4239D90004F4D436E096
:1026D0005FEA806E02D5C1F808CB30E010F0280F19
:1026E0002DD19E4201D90004E6D405EBC50004EBD0
:1026F0008000D1F8101BD0F89832C1F31201591A9A
:10270000C0F89C1200F51F70ADB983691BB1026956
:10271000114401610FE0012120680AE080060AD51A
:10272000C1F808CB07E035B9D4F8940218B90021F4
:10273000184601F093FEE9B22046FEF7F5FA0020B4
:10274000BDE8F0810A31544F0A30544F2DE9F84F5B
:102750000E4601EBC60100EB810481460568616D00
:10276000E06D3C34884202D90120BDE8F88F081A98
:10277000E168814200D20846C01C870805EB461874
:102780001BE000BFA0EB010AE068504500D2824682
:102790000AF10300870899F8100000901FFA8AF3E5
:1027A000F2B22846216902F073F9216901EB0A00AF
:1027B0002061216A01EB0A002062D8F8180980B272
:1027C000B84205D3216AA069814201D20028D9D13B
:1027D000216AA069884208D806F00F0101208840CC
:1027E000D5F834188143C5F834180020BDE7704788
:1027F00070470178407841EA00207047FEF7C4B97D
:1028000030B593B030216846FDF7F7FD14210CA8D0
:10281000FDF7F3FD1E480025016841F0805101607D
:10282000006800F0805011901A48016841F480411E
:1028300001600068022400F48040119001200090A3
:10284000000401908001CDE90640082008904FF473
:10285000A870CDE9090407200B906846FFF75AF8E5
:1028600008B172B6FEE70CA90F2081E831004FF4E1
:10287000A0500F904FF48050109005210CA8FEF747
:1028800059FF002801D072B6FEE713B030BD00003A
:1028900040380240007000400248016841F4700175
:1028A0000160704788ED00E0F0B50268254C264DC8
:1028B000264E274F274B4FF0804CA04209D0604551
:1028C00007D0A84205D0B04203D0B84201D0984208
:1028D00004D122F0700E4A6842EA0E02A0421BD0D8
:1028E000604519D0A84217D0B04215D0B84213D0D5
:1028F000984211D0184DA8420ED0184DA8420BD0C6
:10290000174DA84208D0174DA84205D0164DA84231
:1029100002D0164DA84203D122F44075CA682A435A
:102920004D6922F080022A4302608A68C2620A6806
:102930008262A04201D0984201D10969016301215C
:102940004161F0BD0000014000040040000800406B
:10295000000C0040000401400040014000440140E0
:102960000048014000180040001C004000200040CA
:1029700010B501F01F030121046A99408C430462E1
:10298000016A9A401143016210BD0000F0B5026A6D
:1029900022F001020262036A42688469124E24F046
:1029A00073050C682C4323F002058B682B430D4DF7
:1029B000A84201D0B04205D123F00807CB683B43C1
:1029C00023F00403A84201D0B04205D14D6922F49E
:1029D000407215438A692A434260846149684163B1
:1029E0000362F0BD0000014000040140F0B5026A3E
:1029F00022F010020262026A436884690D6824F4BE
:102A0000E64444EA05248D6822F0200242EA0512D9
:102A10000F4D104EA84201D0B04206D1CF6822F02F
:102A2000800242EA071222F04002A84201D0B042DE
:102A300007D14D6923F4406343EA85038D6943EA76
:102A4000850343608461496881630262F0BD0000D0
:102A50000000014000040140F0B5026A22F48072D7
:102A60000262026A4368C46922F4007224F07305AA
:102A70000C68124E2C438D6842EA05220E4DA84286
:102A800001D0B04206D1CF6822F4006242EA0722A8
:102A900022F48062A84201D0B04207D14D6923F4EC
:102AA000405343EA05138D6943EA05134360C4614B
:102AB0004968C1630262F0BD0000014000040140AA
:102AC00030B5026A22F480520262046A4268C36925
:102AD0000D6823F4E64343EA05238D6824F400548B
:102AE00044EA0534084DA84202D0084DA84204D15A
:102AF0004D6922F4804242EA85124260C36149680E
:102B00000164046230BD0000000001400004014087
:102B100010B5806B0021C185C184FFF742FA10BD5A
:102B200070B5846B2068406994F83D10C0F3C01004
:102B30000025212904D118B1E584204600F08AF847
:102B40002068406994F83E10C0F38010222904D117
:102B500018B1E585204600F056F8206C40F01000D2
:102B600020642046FFF71DFA70BD10B50146806B4A
:102B700009680968C9052FD40021C18501680C3195
:102B800051E8002F22F4807241E80023002BF5D198
:102B90000168143151E8002F22F0010241E80023BE
:102BA000002BF5D10168143151E8002F22F04002CA
:102BB00041E80023002BF5D1202180F83E10016B65
:102BC000012909D101680C3151E8002F22F01002CF
:102BD00041E80023002BF5D1016B012902D0FFF75A
:102BE000DAFB10BD818DFFF7DBF910BD10B5806BEE
:102BF000016B012902D0FFF7CFFB10BD818D490881
:102C0000FFF7CEF910BD01680C3151E8002F22F416
:102C1000907241E80023002BF5D10168143151E88E
:102C2000002F22F0010241E80023002BF5D1016BB7
:102C3000012909D101680C3151E8002F22F010025E
:102C400041E80023002BF5D1202180F83E1000211F
:102C50000163704701680C3151E8002F22F0C00277
:102C600041E80023002BF5D1202180F83D1070476A
:102C700008B590F83E10222901D0022008BD8268D4
:102C80004FF480539A4201D1016921B1816A9A427D
:102C90001BD04AB10AE00268816A5268C2F3080296
:102CA0000A80816A891C08E0026972B10268526870
:102CB00002F07F020A70816A491C8162C18D491E3F
:102CC0000904090CC18503D019E002685268F1E7D4
:102CD0000168CA6822F02002CA600168CA6822F44A
:102CE0008072CA6001684A6922F001024A612021AB
:102CF00080F83E10016B012903D0FFF74CFB002048
:102D000008BD0021016301680C3151E8002F22F059
:102D1000100241E80023002BF5D101680A68D206B1
:102D200002D50A6849680091818DFFF739F9E6E715
:102D300070B5044600680169E26821F4405111430E
:102D400001612169A068E269084361691143084390
:102D50002168CA6849F20C639A430243CA6020683A
:102D60004169A26921F440711143416131492068F0
:102D7000884202D03049884202D1FEF78BFD01E043
:102D8000FEF778FDE2690023192164253226B2F5A9
:102D9000004F626828D0A0FB0101930F9200FDF75D
:102DA00083FA0146B0FBF5F06FF01802504301EBD7
:102DB000800006EB0010B0FBF5F000F0F002B1FB74
:102DC000F5F002EB0012B1FBF5F06FF01803584379
:102DD00001EB800006EB0010B0FBF5F000F00F00F7
:102DE00021681044886070BDA0FB010192185B410E
:102DF000FDF75AFA0146B0FBF5F00201B1FBF5F020
:102E00006FF01803584301EB800006EBC000B0FBE5
:102E1000F5F000F0F80002EB4002B1FBF5F058438A
:102E200001EB800006EBC000B0FBF5F000F00700FE
:102E3000D6E70000001001400014014038B581625F
:102E400082850025134604460564222084F83E004E
:102E5000A26B1C48D063A26B1B481064A26B1B487A
:102E6000D064A06B0A4605652168A06B091DFDF7BB
:102E70003DFD206801684068009084F83C5020695E
:102E800048B120680C3050E8001F41F4807140E8E0
:102E90000012002AF5D12068143050E8001F41F0DC
:102EA000010140E80012002AF5D12068143050E8F2
:102EB000001F41F0400140E80012002AF5D1002037
:102EC00038BD00006B2B0008ED2B0008212B0008FB
:102ED0002DE9F041984617460E460446069D27E028
:102EE000681C25D02DB1FDF749FEA0EB0800A842D3
:102EF0001ED920680C3050E8001F21F4D07140E842
:102F00000012002AF5D12068143050E8001F21F08B
:102F1000010140E80012002AF5D1202084F83D008C
:102F200084F83E00002084F83C000320BDE8F081D6
:102F30002068006836EA000004D00020B842CFD0F4
:102F40000020F3E70120F9E70148FFF72BB8000064
:102F5000B81100202DE9F0410C46D0F8D412D0F879
:102F6000C82200EB8101D1F8C01229B304F00F068A
:102F700006EB860300EB83050027AB694BB106EB3C
:102F8000C60602EB8602926CB3FBF2F602FB163227
:102F9000A2B1C1F81472D0F8D42200EB8200D0F8AC
:102FA000C40203692BB1D1F80802224601F504716D
:102FB00098470020BDE8F0810320FBE700231A4674
:102FC0002146AF6100F0A9FDF3E770B50546D0F8E2
:102FD000D40205EB8000D0F8C04294B1284600F03E
:102FE0007EFCC4F80C02D5F8D412D4F8040205EB28
:102FF0008101D1F8C412CA6804F50371904700201A
:1030000070BD032070BD000070B5224D04462978C4
:1030100000F0A9FB2878002600F00F0000EB8000EC
:1030200004EB800086846978204600F09CFB687879
:1030300000F00F0000EB800004EB8000A0F864615A
:10304000A978204600F08FFBA87800F00F0000EB75
:10305000800004EB80008684C684D4F8D40204EB9C
:103060008000D0F8C01299B1D0F8C40240688047FF
:10307000D4F8D40204EB8000D0F8C00200F071FF55
:10308000D4F8D40204EB8000C0F8C062C4F8BC627B
:10309000002070BDA000002010B5D0F8D41200EBC5
:1030A0008100D0F8C04284B1D0F8C41259B194F86C
:1030B0000002FF2807D08B6894F801222146984728
:1030C000FF2084F80002002010BD032010BD000086
:1030D0000A21018000487047A400002070B5064610
:1030E00082210C4800F0CFFA05460121094800F082
:1030F000CAFA04468121074800F0C5FA0DB1102133
:10310000A971402104B1A18000B1818043203080A9
:10311000004870BDB000002070B5064682210D4801
:1031200000F0B1FA054601210A4800F0ACFA044665
:103130008121084800F0A7FA0DB11021A9714FF4C0
:10314000007104B1A18000B181804320308001482A
:1031500070BD0000B000002070B5064682210C480A
:1031600000F091FA05460121094800F08CFA044666
:103170008121074800F087FA0DB11021A971402183
:1031800004B1A18000B1818043203080004870BD2F
:10319000B00000202DE9F04704464FF4077528469B
:1031A00000F0E0FE06004FF0000863D02946FDF76E
:1031B00024F9D4F8D4023C4D04EB80004FF0100900
:1031C000C0F8C062C4F8BC62207C4FF4007A0127CA
:1031D000F0B3402302222978204600F0EDFB287846
:1031E000402300F00F0000EB800004EB8000878498
:1031F00002226978204600F0DFFB6878082300F09F
:103200000F0000EB800004EB80000322A0F8647143
:10321000A978204601F00F0101EB810104EB810147
:10322000A1F82690A97800F0C7FBA87800F00F005D
:1032300000EB800004EB80008784C6F80482D4F899
:10324000D402474604EB8000D0F8C402006800E0D6
:1032500018E006F5017680473761776132687AB108
:10326000207CF8B140236978204600F0B1FB0020B3
:10327000BDE8F087D4F8D41204EB8101C1F8C08214
:103280000220F5E7534602222978204600F094FBFD
:103290002878534600F00F0000EB800004EB80001C
:1032A0008784A5E75346DEE7A000002010B5D0F8DC
:1032B000D41200EB8101D1F8C01259B1027C084C44
:1032C000002AD1F8042207D04023617800F080FB67
:1032D000002010BD032010BD4FF40073F5E700007F
:1032E000A000002039B1D0F8D42200EB8200C0F851
:1032F000C4120020704703207047D0F8D42200EB9E
:103300008200D0F8C00218B1C0F804120020704743
:1033100003207047D0F8D43200EB8300D0F8C0020D
:1033200028B1C0F81022C0F808120020704703200E
:1033300070472DE9FC410646D0F8D4020C4606EB56
:1033400080000021D0F8C0728DF80010ADF8041094
:103350000D4637B1217811F060022FD0202A4BD1D1
:1033600002E00320BDE8FC81E288F2B109060DD538
:10337000D0F8C40263783946D0F808C01846E04750
:10338000E288072A00D9072239462DE0607887F8BD
:103390000002E088402800D34020C2B287F8012212
:1033A0003946304600F058F82BE0D0F8C402637874
:1033B0000022866821461846B04722E0607830B186
:1033C00001281ED00A2809D00B2815D110E096F844
:1033D0009C02032810D1022201A905E096F89C0264
:1033E000032809D101226946304600F04FF808E071
:1033F00096F89C02032804D02146304600F021F8BC
:1034000003252846AEE710B5D0F8B822002452684C
:10341000904700B10324204610BD002070470020D3
:103420007047134610B50A46002100F0D1FA00207B
:1034300010BD134610B50A46002100F06EFB0020B7
:1034400010BD10B50446802100F04CFB2046BDE8BD
:103450001040002100F046BB10B50323C0F89432A1
:10346000C0F858211346C0F85C210A46002100F03C
:10347000AFFA002010BD10B50521C0F8941200234A
:103480001A46194600F0A4FA002010BD10B5022318
:10349000C0F8943282611346C2610A46002100F0EE
:1034A0003CFB002010BD10B50421C0F8941200238D
:1034B0001A46194600F031FB002010BD10B50A462F
:1034C000024903A000F003F9004810BD38150020A0
:1034D00043444320436F6E666967000012200880F2
:1034E000004870474800002010B50A46024903A072
:1034F00000F0EDF8004810BD38150020434443208B
:10350000496E74657266616365000000042008807E
:10351000004870474400002010B50A46024903A045
:1035200000F0D5F8004810BD3815002053544D69FF
:1035300063726F656C656374726F6E6963730000AC
:1035400010B50A46024903A000F0C1F8004810BDBA
:103550003815002053544D333246343037442D4F04
:1035600050544953554E000010B51A2008800A489F
:103570000168001D0468001D0068081809D00822B1
:103580000649FEF767FF0549042210312046FEF781
:1035900061FF0248801E10BD107AFF1F5E000020F0
:1035A000F8B504460020ADF8000048880D46010A31
:1035B00008295FD2DFE801F05E0409175E5E3C4532
:1035C000D4F8B412207C0A6819E0207C0226002876
:1035D000D4F8B80205D0C16A6846884701464670EB
:1035E00039E0816AF8E7C0B2062843D2DFE800F08C
:1035F000030A1014181CD4F8B402426805E06946A6
:1036000090471CE0D4F8B402826892B3207CF6E7BD
:10361000D4F8B402C268F8E7D4F8B4020269F4E757
:10362000D4F8B4024269F0E7D4F8B4028269ECE756
:10363000207CF0B9D4F8B802416B6846884701464F
:1036400009E0207CA8B9D4F8B802016B6846884725
:10365000014607204870EA888AB1BDF8000040B1F1
:10366000824200D90246ADF800202046FFF70EFF47
:10367000F8BDFFE729462046FFF7E3FEF8E72046BE
:10368000FFF711FFF4E778B50E4642880178002570
:1036900004468A4212D9ADF800100AE0694600F0EB
:1036A0000FF84178052904D181780546B14205D04B
:1036B00000256188BDF800209142EFD8284678BDEA
:1036C0000A8803781A440A8001780844704770B564
:1036D000002300281ED00025044602E06D1CEDB238
:1036E000641C2678002EF9D1022404EB45041480D2
:1036F0001278CA545B1C0322CA5400245B1C06E0E7
:10370000CA545B1CDAB28C54521CD3B2401C0278EF
:10371000002AF5D170BD01004FF0000004D001294E
:1037200001D0022901D0032070470120704778B1F1
:103730000023C0F8B832C0F8C432C0F8D03209B1A2
:10374000C0F8B412012180F89C12027000F0CCB8CD
:103750000320704710B5D0F8C802FDF728FBBDE87C
:103760001040FFF7D8BF10B5D0F8C802FDF7F9FA3E
:10377000BDE81040FFF7CFBF2DE9F04117460446E2
:10378000002521B194F89C02032842D04CE0D4F8E3
:10379000941204F11400022935D1D0E902639E424B
:1037A00006D9F21A826039462046FFF742FE0FE042
:1037B000B34214D14068984211D3D4F89812884289
:1037C0000DD2002211462046FFF733FEC4F898526E
:1037D00000231A461946204600F0FAF813E094F840
:1037E0009C02032808D1D4F8B802C16821B1C4F8FA
:1037F000D452C168204688478021204600F072F9E3
:103800002046FFF738FE94F8A00268B184F8A05271
:103810000AE0D4F8B802426932B1C4F8D45242691D
:1038200020469047002800D10020BDE8F08170B507
:1038300013460446002221B194F89C02032830D09C
:103840003AE0D4F8941204F5AA70032934D1D0E9EF
:1038500002518D420AD96A1A82600846824200D318
:10386000024619462046FFF7DCFD25E094F8AA023F
:1038700010F01F0003D0012802D0022800D000223F
:1038800094F89C02032808D1D4F8B802016921B148
:10389000C4F8D4220169204688472046FFF703FE7A
:1038A0000AE0D4F8B802836933B1C4F8D42282693B
:1038B00020469047002800D1002070BD00207047AE
:1038C00010B50024012180F89C12D0F8B82222B152
:1038D00052680179904700B10324204610BDD0F80A
:1038E000C802FDF792BA000010B5017839BB15493E
:1038F0000222C1F80805C0F8C8124FF0A0400860C5
:10390000042048600020C1E90320C1E906200862C4
:103910004862C86208630846FDF7E6FD08B1FCF797
:103920004EFE80210748FDF7CCF9402200210548D2
:10393000FDF7CBF9802201210248FDF7C6F90020EE
:1039400010BD0000582900200A0601F07F01D0F8C0
:10395000C80201EBC10100EB810002D590F83E00E6
:10396000704790F87E02704710B5D0F8D42200EB73
:103970008202D2F8B82222B190F89C32032B02D0F6
:1039800004E0032010BD126A02B19047002010BD70
:1039900010B5D0F8D42200EB8202D2F8B82222B1BE
:1039A00090F89C32032B02D004E0032010BD526A31
:1039B00002B19047002010BD10B51C461346D0F848
:1039C000C8022246FDF72AFABDE81040FFF7A3BE61
:1039D00010B5D0F8C802FDF751FABDE81040FFF766
:1039E0009ABE2DE9F04100260125044680F89C523C
:1039F000C4F894626660C4F8A46280F8A062D0F84B
:103A0000B80230B1426822B100212046904700B18F
:103A100003260022402311462046FFF7CDFF402712
:103A2000A4F864513B46002280212046C4F860710E
:103A3000FFF7C2FFA58430462762BDE8F08190F809
:103A40009C12042903D190F89D1280F89C1200204A
:103A5000704710B590F89C12032905D1D0F8B81220
:103A600011B1C96901B18847002010BD017400205F
:103A7000704710B5D0F8C802FDF708FEBDE8104049
:103A8000FFF749BE70B5044600F2AA20054600F0D3
:103A90004DF80120C4F89402B4F8B002C4F89802BA
:103AA00094F8AA0210F01F010AD001290ED00229B1
:103AB00012D000F080012046BDE8704000F012B83E
:103AC00029462046BDE8704000F0CCB82946204683
:103AD000BDE8704000F00CBA29462046BDE87040B1
:103AE00000F056B910B5D0F8C802FDF7EBF9BDE803
:103AF0001040FFF710BE10B5D0F8C802FDF7E1FD89
:103B0000BDE81040FFF707BE90F89C1280F89D12A8
:103B1000042180F89C120020704710B5D0F8C8022C
:103B2000FDF70AFABDE81040FFF7F5BD70B5054690
:103B300011F8010B2870087868704C1C2046FEF7BD
:103B400058FE6880A41C2046FEF753FEA880A01CE7
:103B5000FEF74FFEE88070BD38B504460020ADF892
:103B60000000A1B1C4F8B812D4F8D40204EB80006C
:103B7000D0F8B802C16A19B168468847C4F8D002C3
:103B8000D4F8D802401CC4F8D802002038BD032065
:103B900038BD02460020D2F8B832002B02D01B6894
:103BA00010461847704700002DE9F04188462B4E1B
:103BB0008978002504463170012906D941462046FE
:103BC000FFF73FFC0320BDE8F08194F89C02022738
:103BD00002280CD003281DD041462046FFF731FCB7
:103BE00031782046FFF70FFC03252846EBE789B321
:103BF00020466160FFF7CDFF050004D04146204616
:103C0000FFF71FFC1DE02046FFF74DFC032084F862
:103C10009C02EAE7C1B1606888421BD0C1B220466D
:103C2000FFF7F1FB317820466160FFF7B2FF050036
:103C300010D041462046FFF704FC21792046FFF7CB
:103C4000E2FB84F89C72D0E784F89C7220466160A5
:103C5000FFF7D9FB2046FFF726FCC6E79C000020B3
:103C6000FFF749BF2DE9F0410A78002512F0600204
:103C70000CD0202A01D0402A7DD1D0F8D42200EBEC
:103C80008202D2F8B8229268904731E04B78002245
:103C900001260A2B6FD2DFE803F041666E586E08EA
:103CA000056E2D29FFF77CFC67E004468888D8B9AB
:103CB000C888C8B94888802816D200F07F0794F8D1
:103CC0009C02032810D084F89E7239462046FFF7E4
:103CD000D0FE2046FFF7E7FB1FB1022084F89C02CC
:103CE0004BE084F89C6248E0204644E0FFF75CFF2C
:103CF000054642E0CB88012B3DD190F89C32012B48
:103D000004D0022B02D0032B35D104E082600122C3
:103D100000F1080116E00122011D13E090F89C2239
:103D2000012A03D0022A01D0032A24D1CA88022AF8
:103D300021D1C660D0F8A41209B10321C1600222CA
:103D400000F10C01FFF7A2FB17E04A88012A02D01C
:103D5000022A03D00FE0C0F8A46216E08988090A9D
:103D600080F8A01211E090F89C32012B08D0022BB1
:103D700006D0032B04D0FFF764FB2846BDE8F08192
:103D800049880129F9D1C0F8A422FFF78CFBF4E798
:103D90002DE9F041054608780C790E464FF00008F1
:103DA00010F060000BD0202801D040286AD12146B5
:103DB0002846FFF732FBFF2800D0D8B395E0707893
:103DC000C8B3012824D003285CD195F89C020228AE
:103DD00002D0032856D10CE0002C53D0802C51D0B7
:103DE00021462846FFF77EFE80212846FFF77AFE0F
:103DF0007BE0708840B93CB1802C05D0C88818B9E8
:103E000021462846FFF76EFE2846FFF74CFB6CE084
:103E100095F89C020228DFD0032863D1708880BB0C
:103E2000600603D021462846FFF794FC2846FFF79A
:103E30003AFBBCE700E00AE0C5F8D402D5F8B802C6
:103E40008268F2B131462846904780464DE095F8A9
:103E50009C020027022802D0032843D113E00CB1B2
:103E6000802C3FD1200604F07F0000EB800005EBA2
:103E7000800101D5143101E001F5AA7102220F6021
:103E80002CE032E02EE0200604F00F0000EB800072
:103E900005EB800009D5808C20B304F07F0000EB97
:103EA000800005EB800614360AE0B0F86401C8B162
:103EB00004F07F0000EB800005EB800606F5AA7693
:103EC0004CB1802C07D021462846FFF73DFD10B1AC
:103ED0000120306000E03760022231462846FFF7BB
:103EE000D5FA02E02846FFF7ACFA4046BDE8F0817B
:103EF00070B50546087800240E4610F0600003D027
:103F0000202801D0402827D195F89C02012803D011
:103F1000022801D003281FD1B088C1B201291AD8C4
:103F2000C1B22846FFF77BFAFF280CD058B9D5F864
:103F3000B8128A683AB1C5F8D4028A683146284670
:103F40009047044600E00324F088204307D1284628
:103F5000FFF7A9FA03E031462846FFF772FA204638
:103F600070BD7047004870473827002070B50A7848
:103F7000012302F00F054E78AB401B4CD0F81C58C3
:103F8000012E17D045EA0343C0F81C3800EB42105D
:103F9000D0F8002B12040BD4D0F8002B8B890979B0
:103FA000C3F30A031A4344EA81410A43C0F8002BD1
:103FB000002070BD9BB21D43C0F81C5800EB42109E
:103FC000D0F800391B04F3D4D0F800398D89097971
:103FD000C5F30A0589042B4341EA82510B4323436D
:103FE000C0F80039E4E7000000800010D0F80019A4
:103FF0006FF30A01C0F80019D0F8041841F4807179
:10400000C0F804180020704770B5044606990A9E4F
:10401000049D0D98012916D0E06840F04000E06052
:10402000204600F02BF8A16B1EB321F48031A16370
:10403000012D07D1A16841F00601A160A16841F0FE
:104040002001A16070BDA16B21F48031A163E16802
:10405000094A1140E160E16821F44011E160012862
:1040600003D1E06840F48010E060204600F006F8DC
:10407000DEE741F48031DAE7BFFFBDFF08B500227B
:104080000D490092009B5B1C00938B420CD8036986
:10409000002BF7DA0092026942F001020261009AF5
:1040A000521C00928A4201D9032008BD0269D2073E
:1040B000F5D1002008BD0000400D030030B54C785C
:1040C0000A78012300EB4212012C2CD0D2F8004BCD
:1040D000002C0BDAD2F8004B44F00064C2F8004B1D
:1040E000D2F8004B44F08044C2F8004BD0F83C5862
:1040F0000C7804F00F0403FA04F425EA0444C0F831
:104100003C48D0F81C48097801F00F018B4024EAA4
:104110000341C0F81C18D2F8000B19490840C2F836
:10412000000B002030BDD2F80049002C0BDAD2F889
:10413000004944F00064C2F80049D2F8004944F054
:104140008044C2F80049D0F83C480D7805F00F05CE
:1041500003FA05F5ADB2AC43C0F83C48D0F81C48B2
:10416000097801F00F018B4099B28C43C0F81C48CC
:10417000D2F8000903490840C2F80009D1E700005D
:104180000078F3EF007833ECD0F8001E21F0030143
:10419000C0F8001ED0F8041821F00201C0F804187D
:1041A00000207047D0F8001E21F00301C0F8001E67
:1041B000D0F8041841F00201C0F80418002070473C
:1041C0002DE9F04F00250E460446DDF82CC0DDF841
:1041D00024B0109F2846294604EB8002C2F804113F
:1041E000401C0F28F8D32046C7B1806B20F4001282
:1041F000A263A06B40F40022A26308468846C4F87C
:10420000000ED4F800182046C4F80018BCF1010FC5
:1042100016D0D0F8001841F0030116E0D0F80408D9
:1042200040F00202C4F80428A06B40F40012A2631C
:10423000A06B20F40022A263A06B20F48022DBE7B5
:10424000D0F800180BB141F00101C0F8001810219E
:1042500000F0EEFA00B10125204600F0CBFA00B1E3
:1042600001254046C4F81088C4F81488C4F81C8896
:1042700000214FF000694FF0904A4FF67F3314E071
:1042800004EB4112D2F800C9BCF1000F06DA11B1FB
:10429000C2F800A904E0C4F8009901E0C2F80009DE
:1042A000C2F81009C2F80839491C8E42E8D800212A
:1042B00015E000BF04EB4112D2F800CBBCF1000FB7
:1042C00006DA11B1C2F800AB04E0C4F8009B01E0CB
:1042D000C2F8000BC2F8100BC2F8083B491C8E4212
:1042E000E8D8D4F8101821F48072C4F81028A0611E
:1042F0006FF080406061BBF1000F03D1A06940F016
:104300001000A061A06909490843A0610C9818B188
:10431000A06940F00800A061012F03D1A069044901
:104320000843A0612846BDE8F08F000000383C80BB
:1043300004000040816821F0010181600020704785
:1043400070B50D784E78444CEBB200EB4313012E60
:1043500021D0D3F8100B6FF31200C3F8100BD3F871
:10436000100B2040C3F8100B886908B1C868886139
:10437000C868C861D3F8100B40F40020C3F8100BD4
:10438000D3F8100BCC69C4F312042043C3F8100B0C
:10439000012A55D058E08E69002ED3F8106932D02A
:1043A0006FF31206C3F81069D3F810692640C3F8FA
:1043B00010698E69CC68A64200D98C61D3F8104987
:1043C00044F40024C3F81049D3F810498E69C6F3A9
:1043D00012063443C3F81049012A22D000EB4512DB
:1043E000D2F8003943F00443C2F800398A6932B385
:1043F000D0F83428097801F00F03012199400A43CD
:10440000C0F8342826E02640C3F81069D3F81049D4
:1044100044F40024C3F81049D3F810496FF3120490
:10442000D8E7496919B100EB4512C2F8141900EB3D
:104430004510D0F8001941F00441C0F8001909E016
:10444000086908B1C3F8140BD3F8000B40F004401E
:10445000C3F8000B002070BDFFFF07E010B5036C30
:10446000134CA34203D9D0F8003B002B1EDB0023E2
:10447000C0F8103BD0F8103B43F40023C0F8103BC9
:10448000D0F8103B43F01803C0F8103BD0F8103BB5
:1044900043F0C043C0F8103B012907D1C0F8142BEA
:1044A000D0F8001B41F08021C0F8001B002010BD97
:1044B0000A30544F4A780B78012A00EB43100BD096
:1044C000D0F8002B22F40012C0F8002B0979032940
:1044D00014D0022912D017E0D0F8002922F40012DB
:1044E000C0F800290979032901D002290CD1D0F89C
:1044F000001941F08051C0F8001905E0D0F8001B08
:1045000041F08051C0F8001B002070470A784B78BA
:10451000D1B200EB4110012B12D0D0F8001B0029C2
:1045200006DB2AB1D0F8001B21F08041C0F8001B47
:10453000D0F8001B41F40011C0F8001B00207047A8
:10454000D0F80019002906DB2AB1D0F8001921F0B3
:104550008041C0F80019D0F8001941F40011C0F8EA
:104560000019EBE7F8B50C784F78764DE3B26FF0B1
:10457000604600EB4313012F27D0D3F8104B6FF3A5
:104580001204C3F8104BD3F8104B2C40C3F8104B57
:104590008D69002D75D0CC6825446D1EB5FBF4F5F2
:1045A000ADB26C43CC61D3F8104B06EAC5452C4341
:1045B000C3F8104BD3F8104BCD69C5F312052C434B
:1045C000C3F8104B012A71D0A4E08F691FB3D3F850
:1045D00010796FF31207C3F81079D3F810792F40D0
:1045E000C3F810798F69CD682F447F1EB7FBF5F5AE
:1045F00006EAC545D3F810693543C3F81059D3F816
:1046000010598E69C6F312063543C3F810590D7957
:10461000012D10D01BE0D3F810692E40C3F81069AB
:10462000D3F8105945F40025C3F81059D3F81059A0
:104630006FF3120509E0D3F8105925F0C045C3F80F
:104640001059D3F8105945F00055C3F81059012AF4
:1046500018D000EB4413D3F8004944F00444C3F8E5
:1046600000490C79012C2FD08A6962B3D0F8342824
:10467000097801F00F03012199400A43C0F834285A
:104680005EE036E04A691AB100EB4413C3F814291E
:10469000097901290FD1D0F80818C90500EB441198
:1046A000D1F8002903D442F0005202E02EE042F09B
:1046B0008052C1F8002900EB4410D0F8001941F0F5
:1046C0000441C0F800193BE0D0F80848E405D3F8ED
:1046D000004902D444F0005401E044F08054C3F88F
:1046E000004900920A8B93B20A78096900F0D0F968
:1046F00026E0D3F8104BCD68C5F312052C43C3F860
:10470000104BD3F8104B44F4002459E70A690AB15E
:10471000C3F8142B097901290CD1D0F80808C00579
:10472000D3F8000B02D440F0005001E040F080507C
:10473000C3F8000BD3F8000B40F00440C3F8000BA3
:104740000020F8BDFFFF07E038B5002200921346B5
:104750004D780A7842F2107400EB4212012D19D004
:10476000D2F8005B002D3CDAD2F8005B45F0006522
:10477000C2F8005B0A7800EB4212D2F8005B45F009
:104780008045C2F8005B009A521C0092A24221D9D7
:10479000012326E0D2F80059002D22DAD2F8005980
:1047A00045F00065C2F800590A7800EB4212D2F8D1
:1047B000005945F08045C2F80059009A521C0092F9
:1047C000A242E5D80A7800EB4212D2F80029002A6A
:1047D000F3DB06E00A7800EB4212D2F8002B002A45
:1047E000D1DB184638BD816841F0010181600020AD
:1047F0007047000008B500220C490092009B5B1C2A
:1048000000938B420AD80369002BF7DA009210223A
:104810000261009A521C00928A4201D9032008BD0D
:104820000269D206F5D4002008BD0000400D030047
:1048300018B500230D4A0093009C641C0094944218
:104840000CD80469002CF7DA0093202343EA811185
:1048500001610099491C0091914201D9032018BDC2
:1048600001698906F5D4002018BD0000400D030041
:10487000D0F8080810F0060004D0022803D006285B
:1048800001D00F20704702207047406900F00100FE
:104890007047D0F81818D0F81C08084080B270474C
:1048A000D0F81818D0F81C080840000C704710B554
:1048B000D0F81038D0F8342801F00F0400EB411084
:1048C000E24002F00102D0F8080943EAC2121040A7
:1048D00010BD00EB4111D1F8081BD0F814080840B6
:1048E0007047416980690840704730B50346084603
:1048F000940802F00301002203F5805303E01D68D1
:1049000040F8045B521CA242F9D300290BD01C686A
:104910000022D50024FA05F3491E521C090400F8B0
:10492000013B090CF5D130BD70B50446C0680025C7
:1049300020F0C040E060012901D079B120E0E068BA
:1049400040F00050E0600120FCF708F860696D1C41
:1049500010F0010F10D1322DF5D30DE0E06840F0DA
:104960008040E0600120FBF7F9FF60696D1C10F0EA
:10497000010F01D0322DF5D3322D01D0002070BDB2
:10498000012070BDD0F8002822F4FE62C0F8002893
:10499000D0F800284FF4FE6303EA01110A43C0F87F
:1049A0000028002070470000022A3ED1264A274BEB
:1049B0000A449A4201D20F2138E0254A254B0A4485
:1049C0009A4201D20E2131E0234A244B0A449A42F2
:1049D00001D20D212AE0224A224B0A449A4201D2F6
:1049E0000C2123E0204A214B0A449A4201D20B2198
:1049F0001CE01F4A1F4B0A449A4201D20A2115E0CB
:104A00001D4A1E4B0A449A420FD31D4A1D4B0A44AD
:104A10009A4201D2082109E01B4A11441B4A9142E3
:104A200001D2072102E0062100E00921C26822F438
:104A30007052C260C2684FF4705303EA81210A4386
:104A4000C260002070470000405327FF00350C0073
:104A5000401E1BFF40420F0000DC0BFF804F120086
:104A6000808CF9FE20D6130060B6E5FE60E31600E8
:104A700000D3CEFE40771B00C05BB3FEC091210087
:104A800000CA91FE20753800E05459FEE09C4100B8
:104A900010B5029C74B9DB1C9C0800EB02300023AB
:104AA00000F5805004E000BF51F8042B02605B1C4D
:104AB000A342F9D3002010BDFEE70907090E002824
:104AC00004DB00F1E02080F80014704700F00F00D4
:104AD00000F1E02080F8141D704700002DE9F3413B
:104AE0001A4C80461A48217882B04FF480474FF024
:104AF000010229B3560331460546FCF739F8ADF8F3
:104B000000704FF47A773B4602226946606AFDF7EF
:104B100045FC3B46042203A9606AFDF73FFC03986D
:104B20003B4682B24146606AFDF738FC00223146BE
:104B30002846FCF71DF84BF6EF6004B0BDE8F081A5
:104B40003946FCF715F80220F7E7000000000020C6
:104B5000000C02402DE9F04F9246002207781646DD
:104B6000DDF824B022E000BF1AF80260521CBE42F9
:104B700001D09A42F8D3012500240AEB02090FE084
:104B800009EB040C10F804801CF801CCC44502D1D8
:104B90004FF0010C01E04FF0000C0CEA0505641C1D
:104BA0008C42EDD30DB1521E02E0521C9A42DED36C
:104BB0009A4202D30020BDE8F08F0120CBF80020FC
:104BC000F9E7000008B5FBF7E7FFFDF719FEFDF771
:104BD0005DFCFDF7E9FC284826494FF416550024F2
:104BE0000160C0E901540C26C460C0E90446846138
:104BF000C461FDF70BFB08B172B6FEE71F48016800
:104C000041F4001101600068002200F400100090DF
:104C100011461020FCF722F81020FCF711F8FDF7E0
:104C2000FDFC1548164944300160C0E90154C460D8
:104C3000C0E904468461C461FDF7E8FA08B172B6C0
:104C4000FEE7012291030F48FBF792FF0A48443028
:104C500000F01EF8084800214838FDF73DF90B49DF
:104C600009484FF47A74886000F034F82046FBF766
:104C700075FEF9E700100140741100203038024041
:104C800000440040000C0240B14D0008000000202C
:104C900010B5084C00224FF4804160620648FBF7D3
:104CA00067FF4FF480520549606AFDF75FFB012002
:104CB000207010BD00000020000C02402C010020DC
:104CC00000B500F06DF802494968401A00BD0000C7
:104CD0000000002070B5134C4FF480452078C8B117
:104CE0006078B8B100F024F8FFF7EAFF02280FD38C
:104CF0000D486268815A921C61806260A94207D1A6
:104D00008158121D10440A446260A26802B19047A3
:104D1000002070BD012229460448FBF729FF00F05E
:104D200007F8F5E7000000202C010020000C0240ED
:104D3000FEB5174C174E4FF48045607838B100220D
:104D400029463046FBF714FF4BF6EF60FEBD12A07C
:104D50004FF48053006802900020019001A8009059
:104D60000E4A042102A8FFF7F5FE607040B10198D9
:104D70000022001D606029463046FBF7F9FEFEBDAB
:104D8000012229463046FBF7F3FE0120FEBD00005C
:104D900000000020000C0240BEEFBEEF2C010020FE
:104DA000024800684068C0F580507047FC11002040
:104DB000FFF794BE4FF04070E1EE100A7047000616
:104DC000101600061016000000000000000001028E
:104DD00003040607080900000000010203040000A4
:104DE000004E0008000000202C010000C401000853
:104DF000C84E00082C0100209C330000200200084F
:104E000001103296232C011AC2042358021AEE0410
:104E10004113DD3414080D351B0819041A41041A16
:104E200069041ABD141AE9041704030904120114D1
:104E30000202021640830440571D02010203400390
:104E40001A1A0313CD041B08C9041AC5041AF10465
:104E50001309051A08331182105324F414810182B6
:104E6000130A0629862A40201C0902435F1125C027
:104E70003209041B01020B1305241610010524013D
:104E80001009010424020205240617010705820304
:104E9000081C10090495320A2E0705010240072A52
:104EA0008107111B95317012301408333342081AF0
:104EB000990C13552F1B08CB04C11A19281ADD1C95
:084EC0001A59081AD10800007C
:040000050800018965
:00000001FF
